{"abi":[{"inputs":[],"stateMutability":"nonpayable","type":"constructor","name":"constructor"},{"inputs":[{"internalType":"address","name":"","type":"address"}],"name":"addressToAmountFunded","outputs":[{"internalType":"uint256","name":"","type":"uint256"}],"stateMutability":"view","type":"function"},{"inputs":[],"name":"fund","outputs":[],"stateMutability":"payable","type":"function"},{"inputs":[{"internalType":"uint256","name":"","type":"uint256"}],"name":"funders","outputs":[{"internalType":"address","name":"","type":"address"}],"stateMutability":"view","type":"function"},{"inputs":[{"internalType":"uint256","name":"ethAmount","type":"uint256"}],"name":"getConversionRate","outputs":[{"internalType":"uint256","name":"","type":"uint256"}],"stateMutability":"view","type":"function"},{"inputs":[],"name":"getPrice","outputs":[{"internalType":"uint256","name":"","type":"uint256"}],"stateMutability":"view","type":"function"},{"inputs":[],"name":"getVersion","outputs":[{"internalType":"uint256","name":"","type":"uint256"}],"stateMutability":"view","type":"function"},{"inputs":[],"name":"owner","outputs":[{"internalType":"address","name":"","type":"address"}],"stateMutability":"view","type":"function"},{"inputs":[],"name":"withdraw","outputs":[],"stateMutability":"payable","type":"function"}],"bytecode":"608060405234801561001057600080fd5b50600280546001600160a01b03191633179055610527806100326000396000f3fe60806040526004361061007b5760003560e01c80638da5cb5b1161004e5780638da5cb5b1461010e57806398d5fdca1461013f578063b60d428814610154578063dc0d3dff1461015c5761007b565b80630d8e6e2c146100805780633ccfd60b146100a75780633e47d6f3146100b15780636e5b6b28146100e4575b600080fd5b34801561008c57600080fd5b50610095610186565b60408051918252519081900360200190f35b6100af61020b565b005b3480156100bd57600080fd5b50610095600480360360208110156100d457600080fd5b50356001600160a01b03166102b6565b3480156100f057600080fd5b506100956004803603602081101561010757600080fd5b50356102c8565b34801561011a57600080fd5b506101236102e8565b604080516001600160a01b039092168252519081900360200190f35b34801561014b57600080fd5b506100956102f7565b6100af610389565b34801561016857600080fd5b506101236004803603602081101561017f57600080fd5b5035610446565b600080738a753747a1fa494ec906ce90e9f37563a8af630e9050806001600160a01b03166354fd4d506040518163ffffffff1660e01b815260040160206040518083038186803b1580156101d957600080fd5b505afa1580156101ed573d6000803e3d6000fd5b505050506040513d602081101561020357600080fd5b505191505090565b6002546001600160a01b0316331461022257600080fd5b60405133904780156108fc02916000818181858888f1935050505015801561024e573d6000803e3d6000fd5b5060005b6001548110156102955760006001828154811061026b57fe5b60009182526020808320909101546001600160a01b03168252819052604081205550600101610252565b5060408051600081526020810191829052516102b39160019161046d565b50565b60006020819052908152604090205481565b6000806102d36102f7565b670de0b6b3a764000093029290920492915050565b6002546001600160a01b031681565b600080738a753747a1fa494ec906ce90e9f37563a8af630e90506000816001600160a01b031663feaf968c6040518163ffffffff1660e01b815260040160a06040518083038186803b15801561034c57600080fd5b505afa158015610360573d6000803e3d6000fd5b505050506040513d60a081101561037657600080fd5b50602001516402540be400029250505090565b6802b5e3af16b18800008061039d346102c8565b10156103f0576040805162461bcd60e51b815260206004820152601b60248201527f596f75206e65656420746f207370656e64206d6f726520455448210000000000604482015290519081900360640190fd5b5033600081815260208190526040812080543401905560018054808201825591527fb10e2d527612073b26eecdfd717e6a320cf44b4afac2b0732d9fcbe2b7fa0cf60180546001600160a01b0319169091179055565b6001818154811061045357fe5b6000918252602090912001546001600160a01b0316905081565b8280548282559060005260206000209081019282156104c2579160200282015b828111156104c257825182546001600160a01b0319166001600160a01b0390911617825560209092019160019091019061048d565b506104ce9291506104d2565b5090565b5b808211156104ce5780546001600160a01b03191681556001016104d356fea2646970667358221220adb00f6522ccb3a9dda373147da885fd7350a0520a5f8a9d96e20b46294da2df64736f6c634300060c0033","bytecodeSha1":"946962a03046111bde13242a7700564fde6b45ec","compiler":{"evm_version":"istanbul","optimizer":{"enabled":true,"runs":200},"version":"0.6.12+commit.27d51765"},"contractName":"FundMe","language":"Solidity","natspec":{"kind":"dev","methods":{},"version":1},"opcodes":"PUSH1 0x80 PUSH1 0x40 MSTORE PUSH1 0x4 CALLDATASIZE LT PUSH2 0x7B JUMPI PUSH1 0x0 CALLDATALOAD PUSH1 0xE0 SHR DUP1 PUSH4 0x8DA5CB5B GT PUSH2 0x4E JUMPI DUP1 PUSH4 0x8DA5CB5B EQ PUSH2 0x10E JUMPI DUP1 PUSH4 0x98D5FDCA EQ PUSH2 0x13F JUMPI DUP1 PUSH4 0xB60D4288 EQ PUSH2 0x154 JUMPI DUP1 PUSH4 0xDC0D3DFF EQ PUSH2 0x15C JUMPI PUSH2 0x7B JUMP JUMPDEST DUP1 PUSH4 0xD8E6E2C EQ PUSH2 0x80 JUMPI DUP1 PUSH4 0x3CCFD60B EQ PUSH2 0xA7 JUMPI DUP1 PUSH4 0x3E47D6F3 EQ PUSH2 0xB1 JUMPI DUP1 PUSH4 0x6E5B6B28 EQ PUSH2 0xE4 JUMPI JUMPDEST PUSH1 0x0 DUP1 REVERT JUMPDEST CALLVALUE DUP1 ISZERO PUSH2 0x8C JUMPI PUSH1 0x0 DUP1 REVERT JUMPDEST POP PUSH2 0x95 PUSH2 0x186 JUMP JUMPDEST PUSH1 0x40 DUP1 MLOAD SWAP2 DUP3 MSTORE MLOAD SWAP1 DUP2 SWAP1 SUB PUSH1 0x20 ADD SWAP1 RETURN JUMPDEST PUSH2 0xAF PUSH2 0x20B JUMP JUMPDEST STOP JUMPDEST CALLVALUE DUP1 ISZERO PUSH2 0xBD JUMPI PUSH1 0x0 DUP1 REVERT JUMPDEST POP PUSH2 0x95 PUSH1 0x4 DUP1 CALLDATASIZE SUB PUSH1 0x20 DUP2 LT ISZERO PUSH2 0xD4 JUMPI PUSH1 0x0 DUP1 REVERT JUMPDEST POP CALLDATALOAD PUSH1 0x1 PUSH1 0x1 PUSH1 0xA0 SHL SUB AND PUSH2 0x2B6 JUMP JUMPDEST CALLVALUE DUP1 ISZERO PUSH2 0xF0 JUMPI PUSH1 0x0 DUP1 REVERT JUMPDEST POP PUSH2 0x95 PUSH1 0x4 DUP1 CALLDATASIZE SUB PUSH1 0x20 DUP2 LT ISZERO PUSH2 0x107 JUMPI PUSH1 0x0 DUP1 REVERT JUMPDEST POP CALLDATALOAD PUSH2 0x2C8 JUMP JUMPDEST CALLVALUE DUP1 ISZERO PUSH2 0x11A JUMPI PUSH1 0x0 DUP1 REVERT JUMPDEST POP PUSH2 0x123 PUSH2 0x2E8 JUMP JUMPDEST PUSH1 0x40 DUP1 MLOAD PUSH1 0x1 PUSH1 0x1 PUSH1 0xA0 SHL SUB SWAP1 SWAP3 AND DUP3 MSTORE MLOAD SWAP1 DUP2 SWAP1 SUB PUSH1 0x20 ADD SWAP1 RETURN JUMPDEST CALLVALUE DUP1 ISZERO PUSH2 0x14B JUMPI PUSH1 0x0 DUP1 REVERT JUMPDEST POP PUSH2 0x95 PUSH2 0x2F7 JUMP JUMPDEST PUSH2 0xAF PUSH2 0x389 JUMP JUMPDEST CALLVALUE DUP1 ISZERO PUSH2 0x168 JUMPI PUSH1 0x0 DUP1 REVERT JUMPDEST POP PUSH2 0x123 PUSH1 0x4 DUP1 CALLDATASIZE SUB PUSH1 0x20 DUP2 LT ISZERO PUSH2 0x17F JUMPI PUSH1 0x0 DUP1 REVERT JUMPDEST POP CALLDATALOAD PUSH2 0x446 JUMP JUMPDEST PUSH1 0x0 DUP1 PUSH20 0x8A753747A1FA494EC906CE90E9F37563A8AF630E SWAP1 POP DUP1 PUSH1 0x1 PUSH1 0x1 PUSH1 0xA0 SHL SUB AND PUSH4 0x54FD4D50 PUSH1 0x40 MLOAD DUP2 PUSH4 0xFFFFFFFF AND PUSH1 0xE0 SHL DUP2 MSTORE PUSH1 0x4 ADD PUSH1 0x20 PUSH1 0x40 MLOAD DUP1 DUP4 SUB DUP2 DUP7 DUP1 EXTCODESIZE ISZERO DUP1 ISZERO PUSH2 0x1D9 JUMPI PUSH1 0x0 DUP1 REVERT JUMPDEST POP GAS STATICCALL ISZERO DUP1 ISZERO PUSH2 0x1ED JUMPI RETURNDATASIZE PUSH1 0x0 DUP1 RETURNDATACOPY RETURNDATASIZE PUSH1 0x0 REVERT JUMPDEST POP POP POP POP PUSH1 0x40 MLOAD RETURNDATASIZE PUSH1 0x20 DUP2 LT ISZERO PUSH2 0x203 JUMPI PUSH1 0x0 DUP1 REVERT JUMPDEST POP MLOAD SWAP2 POP POP SWAP1 JUMP JUMPDEST PUSH1 0x2 SLOAD PUSH1 0x1 PUSH1 0x1 PUSH1 0xA0 SHL SUB AND CALLER EQ PUSH2 0x222 JUMPI PUSH1 0x0 DUP1 REVERT JUMPDEST PUSH1 0x40 MLOAD CALLER SWAP1 SELFBALANCE DUP1 ISZERO PUSH2 0x8FC MUL SWAP2 PUSH1 0x0 DUP2 DUP2 DUP2 DUP6 DUP9 DUP9 CALL SWAP4 POP POP POP POP ISZERO DUP1 ISZERO PUSH2 0x24E JUMPI RETURNDATASIZE PUSH1 0x0 DUP1 RETURNDATACOPY RETURNDATASIZE PUSH1 0x0 REVERT JUMPDEST POP PUSH1 0x0 JUMPDEST PUSH1 0x1 SLOAD DUP2 LT ISZERO PUSH2 0x295 JUMPI PUSH1 0x0 PUSH1 0x1 DUP3 DUP2 SLOAD DUP2 LT PUSH2 0x26B JUMPI INVALID JUMPDEST PUSH1 0x0 SWAP2 DUP3 MSTORE PUSH1 0x20 DUP1 DUP4 KECCAK256 SWAP1 SWAP2 ADD SLOAD PUSH1 0x1 PUSH1 0x1 PUSH1 0xA0 SHL SUB AND DUP3 MSTORE DUP2 SWAP1 MSTORE PUSH1 0x40 DUP2 KECCAK256 SSTORE POP PUSH1 0x1 ADD PUSH2 0x252 JUMP JUMPDEST POP PUSH1 0x40 DUP1 MLOAD PUSH1 0x0 DUP2 MSTORE PUSH1 0x20 DUP2 ADD SWAP2 DUP3 SWAP1 MSTORE MLOAD PUSH2 0x2B3 SWAP2 PUSH1 0x1 SWAP2 PUSH2 0x46D JUMP JUMPDEST POP JUMP JUMPDEST PUSH1 0x0 PUSH1 0x20 DUP2 SWAP1 MSTORE SWAP1 DUP2 MSTORE PUSH1 0x40 SWAP1 KECCAK256 SLOAD DUP2 JUMP JUMPDEST PUSH1 0x0 DUP1 PUSH2 0x2D3 PUSH2 0x2F7 JUMP JUMPDEST PUSH8 0xDE0B6B3A7640000 SWAP4 MUL SWAP3 SWAP1 SWAP3 DIV SWAP3 SWAP2 POP POP JUMP JUMPDEST PUSH1 0x2 SLOAD PUSH1 0x1 PUSH1 0x1 PUSH1 0xA0 SHL SUB AND DUP2 JUMP JUMPDEST PUSH1 0x0 DUP1 PUSH20 0x8A753747A1FA494EC906CE90E9F37563A8AF630E SWAP1 POP PUSH1 0x0 DUP2 PUSH1 0x1 PUSH1 0x1 PUSH1 0xA0 SHL SUB AND PUSH4 0xFEAF968C PUSH1 0x40 MLOAD DUP2 PUSH4 0xFFFFFFFF AND PUSH1 0xE0 SHL DUP2 MSTORE PUSH1 0x4 ADD PUSH1 0xA0 PUSH1 0x40 MLOAD DUP1 DUP4 SUB DUP2 DUP7 DUP1 EXTCODESIZE ISZERO DUP1 ISZERO PUSH2 0x34C JUMPI PUSH1 0x0 DUP1 REVERT JUMPDEST POP GAS STATICCALL ISZERO DUP1 ISZERO PUSH2 0x360 JUMPI RETURNDATASIZE PUSH1 0x0 DUP1 RETURNDATACOPY RETURNDATASIZE PUSH1 0x0 REVERT JUMPDEST POP POP POP POP PUSH1 0x40 MLOAD RETURNDATASIZE PUSH1 0xA0 DUP2 LT ISZERO PUSH2 0x376 JUMPI PUSH1 0x0 DUP1 REVERT JUMPDEST POP PUSH1 0x20 ADD MLOAD PUSH5 0x2540BE400 MUL SWAP3 POP POP POP SWAP1 JUMP JUMPDEST PUSH9 0x2B5E3AF16B1880000 DUP1 PUSH2 0x39D CALLVALUE PUSH2 0x2C8 JUMP JUMPDEST LT ISZERO PUSH2 0x3F0 JUMPI PUSH1 0x40 DUP1 MLOAD PUSH3 0x461BCD PUSH1 0xE5 SHL DUP2 MSTORE PUSH1 0x20 PUSH1 0x4 DUP3 ADD MSTORE PUSH1 0x1B PUSH1 0x24 DUP3 ADD MSTORE PUSH32 0x596F75206E65656420746F207370656E64206D6F726520455448210000000000 PUSH1 0x44 DUP3 ADD MSTORE SWAP1 MLOAD SWAP1 DUP2 SWAP1 SUB PUSH1 0x64 ADD SWAP1 REVERT JUMPDEST POP CALLER PUSH1 0x0 DUP2 DUP2 MSTORE PUSH1 0x20 DUP2 SWAP1 MSTORE PUSH1 0x40 DUP2 KECCAK256 DUP1 SLOAD CALLVALUE ADD SWAP1 SSTORE PUSH1 0x1 DUP1 SLOAD DUP1 DUP3 ADD DUP3 SSTORE SWAP2 MSTORE PUSH32 0xB10E2D527612073B26EECDFD717E6A320CF44B4AFAC2B0732D9FCBE2B7FA0CF6 ADD DUP1 SLOAD PUSH1 0x1 PUSH1 0x1 PUSH1 0xA0 SHL SUB NOT AND SWAP1 SWAP2 OR SWAP1 SSTORE JUMP JUMPDEST PUSH1 0x1 DUP2 DUP2 SLOAD DUP2 LT PUSH2 0x453 JUMPI INVALID JUMPDEST PUSH1 0x0 SWAP2 DUP3 MSTORE PUSH1 0x20 SWAP1 SWAP2 KECCAK256 ADD SLOAD PUSH1 0x1 PUSH1 0x1 PUSH1 0xA0 SHL SUB AND SWAP1 POP DUP2 JUMP JUMPDEST DUP3 DUP1 SLOAD DUP3 DUP3 SSTORE SWAP1 PUSH1 0x0 MSTORE PUSH1 0x20 PUSH1 0x0 KECCAK256 SWAP1 DUP2 ADD SWAP3 DUP3 ISZERO PUSH2 0x4C2 JUMPI SWAP2 PUSH1 0x20 MUL DUP3 ADD JUMPDEST DUP3 DUP2 GT ISZERO PUSH2 0x4C2 JUMPI DUP3 MLOAD DUP3 SLOAD PUSH1 0x1 PUSH1 0x1 PUSH1 0xA0 SHL SUB NOT AND PUSH1 0x1 PUSH1 0x1 PUSH1 0xA0 SHL SUB SWAP1 SWAP2 AND OR DUP3 SSTORE PUSH1 0x20 SWAP1 SWAP3 ADD SWAP2 PUSH1 0x1 SWAP1 SWAP2 ADD SWAP1 PUSH2 0x48D JUMP JUMPDEST POP PUSH2 0x4CE SWAP3 SWAP2 POP PUSH2 0x4D2 JUMP JUMPDEST POP SWAP1 JUMP JUMPDEST JUMPDEST DUP1 DUP3 GT ISZERO PUSH2 0x4CE JUMPI DUP1 SLOAD PUSH1 0x1 PUSH1 0x1 PUSH1 0xA0 SHL SUB NOT AND DUP2 SSTORE PUSH1 0x1 ADD PUSH2 0x4D3 JUMP INVALID LOG2 PUSH5 0x6970667358 0x22 SLT KECCAK256 0xAD 0xB0 0xF PUSH6 0x22CCB3A9DDA3 PUSH20 0x147DA885FD7350A0520A5F8A9D96E20B46294DA2 0xDF PUSH5 0x736F6C6343 STOP MOD 0xC STOP CALLER ","sha1":"eefeb40fc67e7c15ea098d279d957016eddcaaff","source":"// SPDX-License-Identifier: MIT\n\n// Smart contract that lets anyone deposit ETH into the contract\n// Only the owner of the contract can withdraw the ETH\npragma solidity ^0.6.6;\n\n// Get the latest ETH/USD price from chainlink price feed\n// import \"@chainlink/contracts/src/v0.6/interfaces/AggregatorV3Interface.sol\";\n\ninterface AggregatorV3Interface {\n    function decimals() external view returns (uint8);\n\n    function description() external view returns (string memory);\n\n    function version() external view returns (uint256);\n\n    // getRoundData and latestRoundData should both raise \"No data present\"\n    // if they do not have data to report, instead of returning unset values\n    // which could be misinterpreted as actual reported values.\n    function getRoundData(uint80 _roundId)\n        external\n        view\n        returns (\n            uint80 roundId,\n            int256 answer,\n            uint256 startedAt,\n            uint256 updatedAt,\n            uint80 answeredInRound\n        );\n\n    function latestRoundData()\n        external\n        view\n        returns (\n            uint80 roundId,\n            int256 answer,\n            uint256 startedAt,\n            uint256 updatedAt,\n            uint80 answeredInRound\n        );\n}\n\n// import \"@chainlink/contracts/src/v0.6/vendor/SafeMathChainlink.sol\";\n\n/**\n * @dev Wrappers over Solidity's arithmetic operations with added overflow\n * checks.\n *\n * Arithmetic operations in Solidity wrap on overflow. This can easily result\n * in bugs, because programmers usually assume that an overflow raises an\n * error, which is the standard behavior in high level programming languages.\n * `SafeMath` restores this intuition by reverting the transaction when an\n * operation overflows.\n *\n * Using this library instead of the unchecked operations eliminates an entire\n * class of bugs, so it's recommended to use it always.\n */\nlibrary SafeMathChainlink {\n    /**\n     * @dev Returns the addition of two unsigned integers, reverting on\n     * overflow.\n     *\n     * Counterpart to Solidity's `+` operator.\n     *\n     * Requirements:\n     * - Addition cannot overflow.\n     */\n    function add(uint256 a, uint256 b) internal pure returns (uint256) {\n        uint256 c = a + b;\n        require(c >= a, \"SafeMath: addition overflow\");\n\n        return c;\n    }\n\n    /**\n     * @dev Returns the subtraction of two unsigned integers, reverting on\n     * overflow (when the result is negative).\n     *\n     * Counterpart to Solidity's `-` operator.\n     *\n     * Requirements:\n     * - Subtraction cannot overflow.\n     */\n    function sub(uint256 a, uint256 b) internal pure returns (uint256) {\n        require(b <= a, \"SafeMath: subtraction overflow\");\n        uint256 c = a - b;\n\n        return c;\n    }\n\n    /**\n     * @dev Returns the multiplication of two unsigned integers, reverting on\n     * overflow.\n     *\n     * Counterpart to Solidity's `*` operator.\n     *\n     * Requirements:\n     * - Multiplication cannot overflow.\n     */\n    function mul(uint256 a, uint256 b) internal pure returns (uint256) {\n        // Gas optimization: this is cheaper than requiring 'a' not being zero, but the\n        // benefit is lost if 'b' is also tested.\n        // See: https://github.com/OpenZeppelin/openzeppelin-solidity/pull/522\n        if (a == 0) {\n            return 0;\n        }\n\n        uint256 c = a * b;\n        require(c / a == b, \"SafeMath: multiplication overflow\");\n\n        return c;\n    }\n\n    /**\n     * @dev Returns the integer division of two unsigned integers. Reverts on\n     * division by zero. The result is rounded towards zero.\n     *\n     * Counterpart to Solidity's `/` operator. Note: this function uses a\n     * `revert` opcode (which leaves remaining gas untouched) while Solidity\n     * uses an invalid opcode to revert (consuming all remaining gas).\n     *\n     * Requirements:\n     * - The divisor cannot be zero.\n     */\n    function div(uint256 a, uint256 b) internal pure returns (uint256) {\n        // Solidity only automatically asserts when dividing by 0\n        require(b > 0, \"SafeMath: division by zero\");\n        uint256 c = a / b;\n        // assert(a == b * c + a % b); // There is no case in which this doesn't hold\n\n        return c;\n    }\n\n    /**\n     * @dev Returns the remainder of dividing two unsigned integers. (unsigned integer modulo),\n     * Reverts when dividing by zero.\n     *\n     * Counterpart to Solidity's `%` operator. This function uses a `revert`\n     * opcode (which leaves remaining gas untouched) while Solidity uses an\n     * invalid opcode to revert (consuming all remaining gas).\n     *\n     * Requirements:\n     * - The divisor cannot be zero.\n     */\n    function mod(uint256 a, uint256 b) internal pure returns (uint256) {\n        require(b != 0, \"SafeMath: modulo by zero\");\n        return a % b;\n    }\n}\n\ncontract FundMe {\n    // safe math library check uint256 for integer overflows\n    using SafeMathChainlink for uint256;\n\n    //mapping to store which address depositeded how much ETH\n    mapping(address => uint256) public addressToAmountFunded;\n    // array of addresses who deposited\n    address[] public funders;\n    //address of the owner (who deployed the contract)\n    address public owner;\n\n    // the first person to deploy the contract is\n    // the owner\n    constructor() public {\n        owner = msg.sender;\n    }\n\n    function fund() public payable {\n        // 18 digit number to be compared with donated amount\n        uint256 minimumUSD = 50 * 10**18;\n        //is the donated amount less than 50USD?\n        require(\n            getConversionRate(msg.value) >= minimumUSD,\n            \"You need to spend more ETH!\"\n        );\n        //if not, add to mapping and funders array\n        addressToAmountFunded[msg.sender] += msg.value;\n        funders.push(msg.sender);\n    }\n\n    //function to get the version of the chainlink pricefeed\n    function getVersion() public view returns (uint256) {\n        AggregatorV3Interface priceFeed = AggregatorV3Interface(\n            0x8A753747A1Fa494EC906cE90E9f37563A8AF630e\n        );\n        return priceFeed.version();\n    }\n\n    function getPrice() public view returns (uint256) {\n        AggregatorV3Interface priceFeed = AggregatorV3Interface(\n            0x8A753747A1Fa494EC906cE90E9f37563A8AF630e\n        );\n        (, int256 answer, , , ) = priceFeed.latestRoundData();\n        // ETH/USD rate in 18 digit\n        return uint256(answer * 10000000000);\n    }\n\n    // 1000000000\n    function getConversionRate(uint256 ethAmount)\n        public\n        view\n        returns (uint256)\n    {\n        uint256 ethPrice = getPrice();\n        uint256 ethAmountInUsd = (ethPrice * ethAmount) / 1000000000000000000;\n        // the actual ETH/USD conversation rate, after adjusting the extra 0s.\n        return ethAmountInUsd;\n    }\n\n    //modifier: https://medium.com/coinmonks/solidity-tutorial-all-about-modifiers-a86cf81c14cb\n    modifier onlyOwner() {\n        //is the message sender owner of the contract?\n        require(msg.sender == owner);\n\n        _;\n    }\n\n    // onlyOwner modifer will first check the condition inside it\n    // and\n    // if true, withdraw function will be executed\n    function withdraw() public payable onlyOwner {\n        // If you are using version eight (v0.8) of chainlink aggregator interface,\n        // you will need to change the code below to\n        // payable(msg.sender).transfer(address(this).balance);\n        msg.sender.transfer(address(this).balance);\n\n        //iterate through all the mappings and make them 0\n        //since all the deposited amount has been withdrawn\n        for (\n            uint256 funderIndex = 0;\n            funderIndex < funders.length;\n            funderIndex++\n        ) {\n            address funder = funders[funderIndex];\n            addressToAmountFunded[funder] = 0;\n        }\n        //funders array will be initialized to 0\n        funders = new address[](0);\n    }\n}\n","sourcePath":"contracts/FundMe.sol","type":"contract","deployment":{"address":"0x5495df47B0971200851930239812c7C69965C1dA","chainid":"4","blockHeight":10476021}}